{
  "contractName": "ComplexStorage",
  "abi": [
    {
      "constant": true,
      "inputs": [],
      "name": "boolVal",
      "outputs": [
        {
          "name": "",
          "type": "bool"
        }
      ],
      "payable": false,
      "stateMutability": "view",
      "type": "function"
    },
    {
      "constant": true,
      "inputs": [],
      "name": "stringVal",
      "outputs": [
        {
          "name": "",
          "type": "string"
        }
      ],
      "payable": false,
      "stateMutability": "view",
      "type": "function"
    },
    {
      "constant": true,
      "inputs": [],
      "name": "intVal",
      "outputs": [
        {
          "name": "",
          "type": "int256"
        }
      ],
      "payable": false,
      "stateMutability": "view",
      "type": "function"
    },
    {
      "constant": true,
      "inputs": [
        {
          "name": "",
          "type": "uint256"
        }
      ],
      "name": "intListVal",
      "outputs": [
        {
          "name": "",
          "type": "int256"
        }
      ],
      "payable": false,
      "stateMutability": "view",
      "type": "function"
    },
    {
      "constant": true,
      "inputs": [],
      "name": "uintVal",
      "outputs": [
        {
          "name": "",
          "type": "uint256"
        }
      ],
      "payable": false,
      "stateMutability": "view",
      "type": "function"
    },
    {
      "constant": true,
      "inputs": [],
      "name": "int224Val",
      "outputs": [
        {
          "name": "",
          "type": "int224"
        }
      ],
      "payable": false,
      "stateMutability": "view",
      "type": "function"
    },
    {
      "constant": true,
      "inputs": [],
      "name": "bytes16Val",
      "outputs": [
        {
          "name": "",
          "type": "bytes16"
        }
      ],
      "payable": false,
      "stateMutability": "view",
      "type": "function"
    },
    {
      "constant": true,
      "inputs": [
        {
          "name": "",
          "type": "uint256"
        }
      ],
      "name": "boolVectorVal",
      "outputs": [
        {
          "name": "",
          "type": "bool"
        }
      ],
      "payable": false,
      "stateMutability": "view",
      "type": "function"
    },
    {
      "constant": true,
      "inputs": [
        {
          "name": "",
          "type": "uint256"
        },
        {
          "name": "",
          "type": "uint256"
        }
      ],
      "name": "bytes2VectorListVal",
      "outputs": [
        {
          "name": "",
          "type": "bytes2"
        }
      ],
      "payable": false,
      "stateMutability": "view",
      "type": "function"
    },
    {
      "anonymous": false,
      "inputs": [
        {
          "indexed": false,
          "name": "a",
          "type": "uint256"
        },
        {
          "indexed": false,
          "name": "b",
          "type": "int256"
        },
        {
          "indexed": false,
          "name": "c",
          "type": "bool"
        },
        {
          "indexed": false,
          "name": "d",
          "type": "int224"
        },
        {
          "indexed": false,
          "name": "e",
          "type": "bool[2]"
        },
        {
          "indexed": false,
          "name": "f",
          "type": "int256[]"
        },
        {
          "indexed": false,
          "name": "g",
          "type": "string"
        },
        {
          "indexed": false,
          "name": "h",
          "type": "bytes16"
        },
        {
          "indexed": false,
          "name": "i",
          "type": "bytes2[4][]"
        }
      ],
      "name": "ValsSet",
      "type": "event"
    },
    {
      "constant": false,
      "inputs": [
        {
          "name": "_uintVal",
          "type": "uint256"
        },
        {
          "name": "_intVal",
          "type": "int256"
        },
        {
          "name": "_boolVal",
          "type": "bool"
        },
        {
          "name": "_int224Val",
          "type": "int224"
        },
        {
          "name": "_boolVectorVal",
          "type": "bool[2]"
        },
        {
          "name": "_intListVal",
          "type": "int256[]"
        },
        {
          "name": "_stringVal",
          "type": "string"
        },
        {
          "name": "_bytes16Val",
          "type": "bytes16"
        },
        {
          "name": "_bytes2VectorListVal",
          "type": "bytes2[4][]"
        }
      ],
      "name": "setValues",
      "outputs": [],
      "payable": false,
      "stateMutability": "nonpayable",
      "type": "function"
    },
    {
      "constant": true,
      "inputs": [],
      "name": "getVals",
      "outputs": [
        {
          "name": "",
          "type": "uint256"
        },
        {
          "name": "",
          "type": "int256"
        },
        {
          "name": "",
          "type": "bool"
        },
        {
          "name": "",
          "type": "int224"
        },
        {
          "name": "",
          "type": "bool[2]"
        },
        {
          "name": "",
          "type": "int256[]"
        },
        {
          "name": "",
          "type": "string"
        },
        {
          "name": "",
          "type": "bytes16"
        },
        {
          "name": "",
          "type": "bytes2[4][]"
        }
      ],
      "payable": false,
      "stateMutability": "view",
      "type": "function"
    }
  ],
  "bytecode": "0x608060405234801561001057600080fd5b506111be806100206000396000f3006080604052600436106100af576000357c0100000000000000000000000000000000000000000000000000000000900463ffffffff1680631aadfbdb146100b45780632316afea14610258578063579c738a14610287578063614ac7911461031757806382a35c77146104dc5780638ba27dca146105075780639a0283ed146105485780639d49a304146105735780639eb7a6b2146105a4578063c84a4100146105f5578063f4f67ad71461063a575b600080fd5b3480156100c057600080fd5b5061025660048036038101908080359060200190929190803590602001909291908035151590602001909291908035601b0b9060200190929190806040019060028060200260405190810160405280929190826002602002808284378201915050505050919291929080359060200190820180359060200190808060200260200160405190810160405280939291908181526020018383602002808284378201915050505050509192919290803590602001908201803590602001908080601f016020809104026020016040519081016040528093929190818152602001838380828437820191505050505050919291929080356fffffffffffffffffffffffffffffffff1916906020019092919080359060200190820180359060200190808060200260200160405190810160405280939291908181526020016000905b828210156102445784848390506080020160048060200260405190810160405280929190826004602002808284378201915050505050815260200190600101906101ff565b505050505091929192905050506106c7565b005b34801561026457600080fd5b5061026d6109b9565b604051808215151515815260200191505060405180910390f35b34801561029357600080fd5b5061029c6109cc565b6040518080602001828103825283818151815260200191508051906020019080838360005b838110156102dc5780820151818401526020810190506102c1565b50505050905090810190601f1680156103095780820380516001836020036101000a031916815260200191505b509250505060405180910390f35b34801561032357600080fd5b5061032c610a6a565b604051808a81526020018981526020018815151515815260200187601b0b601b0b815260200186600260200280838360005b8381101561037957808201518184015260208101905061035e565b505050509050018060200180602001856fffffffffffffffffffffffffffffffff19166fffffffffffffffffffffffffffffffff1916815260200180602001848103845288818151815260200191508051906020019060200280838360005b838110156103f35780820151818401526020810190506103d8565b50505050905001848103835287818151815260200191508051906020019080838360005b83811015610432578082015181840152602081019050610417565b50505050905090810190601f16801561045f5780820380516001836020036101000a031916815260200191505b508481038252858181518152602001915080516000925b818410156104c157828490602001906020020151600460200280838360005b838110156104b0578082015181840152602081019050610495565b505050509050019260010192610476565b925050509c5050505050505050505050505060405180910390f35b3480156104e857600080fd5b506104f1610d24565b6040518082815260200191505060405180910390f35b34801561051357600080fd5b5061053260048036038101908080359060200190929190505050610d2a565b6040518082815260200191505060405180910390f35b34801561055457600080fd5b5061055d610d4d565b6040518082815260200191505060405180910390f35b34801561057f57600080fd5b50610588610d53565b6040518082601b0b601b0b815260200191505060405180910390f35b3480156105b057600080fd5b506105b9610d66565b60405180826fffffffffffffffffffffffffffffffff19166fffffffffffffffffffffffffffffffff1916815260200191505060405180910390f35b34801561060157600080fd5b5061062060048036038101908080359060200190929190505050610d89565b604051808215151515815260200191505060405180910390f35b34801561064657600080fd5b5061066f6004803603810190808035906020019092919080359060200190929190505050610db2565b60405180827dffffffffffffffffffffffffffffffffffffffffffffffffffffffffffff19167dffffffffffffffffffffffffffffffffffffffffffffffffffffffffffff1916815260200191505060405180910390f35b886000819055508760018190555086600260006101000a81548160ff02191690831515021790555085600260016101000a8154817bffffffffffffffffffffffffffffffffffffffffffffffffffffffff0219169083601b0b7bffffffffffffffffffffffffffffffffffffffffffffffffffffffff160217905550846003906002610754929190610e16565b50836004908051906020019061076b929190610eaf565b508260059080519060200190610782929190610efc565b5081600660006101000a8154816fffffffffffffffffffffffffffffffff02191690837001000000000000000000000000000000009004021790555080600790805190602001906107d4929190610f7c565b507f88d23351ad32a937b11ca10530404f8297d29803e94709336b48c1f82c15b3cc898989898989898989604051808a81526020018981526020018815151515815260200187601b0b601b0b815260200186600260200280838360005b8381101561084c578082015181840152602081019050610831565b505050509050018060200180602001856fffffffffffffffffffffffffffffffff19166fffffffffffffffffffffffffffffffff1916815260200180602001848103845288818151815260200191508051906020019060200280838360005b838110156108c65780820151818401526020810190506108ab565b50505050905001848103835287818151815260200191508051906020019080838360005b838110156109055780820151818401526020810190506108ea565b50505050905090810190601f1680156109325780820380516001836020036101000a031916815260200191505b508481038252858181518152602001915080516000925b8184101561099457828490602001906020020151600460200280838360005b83811015610983578082015181840152602081019050610968565b505050509050019260010192610949565b925050509c5050505050505050505050505060405180910390a1505050505050505050565b600260009054906101000a900460ff1681565b60058054600181600116156101000203166002900480601f016020809104026020016040519081016040528092919081815260200182805460018160011615610100020316600290048015610a625780601f10610a3757610100808354040283529160200191610a62565b820191906000526020600020905b815481529060010190602001808311610a4557829003601f168201915b505050505081565b600080600080610a78610fd7565b60608060006060600054600154600260009054906101000a900460ff16600260019054906101000a9004601b0b600360046005600660009054906101000a900470010000000000000000000000000000000002600784600280602002604051908101604052809291908260028015610b2a576020028201916000905b82829054906101000a900460ff16151581526020019060010190602082600001049283019260010382029150808411610af45790505b5050505050945083805480602002602001604051908101604052809291908181526020018280548015610b7c57602002820191906000526020600020905b815481526020019060010190808311610b68575b50505050509350828054600181600116156101000203166002900480601f016020809104026020016040519081016040528092919081815260200182805460018160011615610100020316600290048015610c185780601f10610bed57610100808354040283529160200191610c18565b820191906000526020600020905b815481529060010190602001808311610bfb57829003601f168201915b5050505050925080805480602002602001604051908101604052809291908181526020016000905b82821015610d0157838290600052602060002001600480602002604051908101604052809291908260048015610ced576020028201916000905b82829054906101000a90047e01000000000000000000000000000000000000000000000000000000000000027dffffffffffffffffffffffffffffffffffffffffffffffffffffffffffff191681526020019060020190602082600101049283019260010382029150808411610c7a5790505b505050505081526020019060010190610c40565b505050509050985098509850985098509850985098509850909192939495969798565b60015481565b600481815481101515610d3957fe5b906000526020600020016000915090505481565b60005481565b600260019054906101000a9004601b0b81565b600660009054906101000a90047001000000000000000000000000000000000281565b600381600281101515610d9857fe5b60209182820401919006915054906101000a900460ff1681565b600782815481101515610dc157fe5b9060005260206000200181600481101515610dd857fe5b60109182820401919006600202915091509054906101000a90047e010000000000000000000000000000000000000000000000000000000000000281565b826002601f01602090048101928215610e9e5791602002820160005b83821115610e6f57835183826101000a81548160ff0219169083151502179055509260200192600101602081600001049283019260010302610e32565b8015610e9c5782816101000a81549060ff0219169055600101602081600001049283019260010302610e6f565b505b509050610eab9190610ff9565b5090565b828054828255906000526020600020908101928215610eeb579160200282015b82811115610eea578251825591602001919060010190610ecf565b5b509050610ef89190611029565b5090565b828054600181600116156101000203166002900490600052602060002090601f016020900481019282601f10610f3d57805160ff1916838001178555610f6b565b82800160010185558215610f6b579182015b82811115610f6a578251825591602001919060010190610f4f565b5b509050610f78919061104e565b5090565b828054828255906000526020600020908101928215610fc6579160200282015b82811115610fc557825182906004610fb5929190611073565b5091602001919060010190610f9c565b5b509050610fd3919061112e565b5090565b6040805190810160405280600290602082028038833980820191505090505090565b61102691905b8082111561102257600081816101000a81549060ff021916905550600101610fff565b5090565b90565b61104b91905b8082111561104757600081600090555060010161102f565b5090565b90565b61107091905b8082111561106c576000816000905550600101611054565b5090565b90565b826004600f0160109004810192821561111d5791602002820160005b838211156110ed57835183826101000a81548161ffff02191690837e0100000000000000000000000000000000000000000000000000000000000090040217905550926020019260020160208160010104928301926001030261108f565b801561111b5782816101000a81549061ffff02191690556002016020816001010492830192600103026110ed565b505b50905061112a919061115a565b5090565b61115791905b80821115611153576000818161114a919061118b565b50600101611134565b5090565b90565b61118891905b8082111561118457600081816101000a81549061ffff021916905550600101611160565b5090565b90565b50600090555600a165627a7a7230582011b9a8b2fe6341272836fb36535a5f03b46544a58a14b17b7d49405a8247b7d10029",
  "source": "pragma solidity ^0.4.13;\n\ncontract ComplexStorage {\n    uint public uintVal;\n    int public intVal;\n    bool public boolVal;\n    int224 public int224Val;\n    bool[2] public boolVectorVal;\n    int[] public intListVal;\n    string public stringVal;\n    bytes16 public bytes16Val;\n    bytes2[4][] public bytes2VectorListVal;\n\n    event ValsSet(uint a, int b, bool c, int224 d, bool[2] e, int[] f, string g, bytes16 h, bytes2[4][] i);\n    \n    function setValues(uint _uintVal, int _intVal, bool _boolVal, int224 _int224Val, bool[2] _boolVectorVal, int[] _intListVal, string _stringVal, bytes16 _bytes16Val, bytes2[4][] _bytes2VectorListVal) public {\n         uintVal =           _uintVal;\n         intVal =            _intVal;\n         boolVal =           _boolVal;\n         int224Val =         _int224Val;\n         boolVectorVal =     _boolVectorVal;\n         intListVal =        _intListVal;\n         stringVal   =       _stringVal;\n         bytes16Val   =      _bytes16Val;\n         bytes2VectorListVal = _bytes2VectorListVal;\n         \n         emit ValsSet(_uintVal, _intVal, _boolVal, _int224Val, _boolVectorVal, _intListVal, _stringVal, _bytes16Val, _bytes2VectorListVal);\n    }\n\n    function getVals () constant public returns (uint, int, bool, int224, bool[2], int[], string, bytes16, bytes2[4][]) {\n      return (uintVal, intVal, boolVal, int224Val, boolVectorVal, intListVal, stringVal, bytes16Val, bytes2VectorListVal);\n    }\n   \n}\n",
  "sourcePath": "/home/akru/hsweb3test/contracts/ComplexStorage.sol",
  "compiler": {
    "name": "solc",
    "version": "0.4.24+commit.e67f0147.Emscripten.clang"
  },
  "schemaVersion": "2.0.1",
  "updatedAt": "2018-10-17T08:28:45.994Z"
}