{
  "contractName": "Linearization",
  "abi": [
    {
      "anonymous": false,
      "inputs": [
        {
          "indexed": false,
          "name": "sender",
          "type": "address"
        },
        {
          "indexed": false,
          "name": "amount",
          "type": "uint256"
        }
      ],
      "name": "E1",
      "type": "event"
    },
    {
      "anonymous": false,
      "inputs": [
        {
          "indexed": false,
          "name": "tag",
          "type": "string"
        },
        {
          "indexed": false,
          "name": "uuid",
          "type": "bytes4"
        }
      ],
      "name": "E2",
      "type": "event"
    },
    {
      "anonymous": false,
      "inputs": [
        {
          "indexed": false,
          "name": "txOrigin",
          "type": "address"
        },
        {
          "indexed": false,
          "name": "blockNumber",
          "type": "uint256"
        }
      ],
      "name": "E3",
      "type": "event"
    },
    {
      "anonymous": false,
      "inputs": [
        {
          "indexed": false,
          "name": "sig",
          "type": "bytes4"
        },
        {
          "indexed": false,
          "name": "blockHash",
          "type": "bytes32"
        }
      ],
      "name": "E4",
      "type": "event"
    },
    {
      "constant": false,
      "inputs": [],
      "name": "e12",
      "outputs": [],
      "payable": false,
      "stateMutability": "nonpayable",
      "type": "function"
    },
    {
      "constant": false,
      "inputs": [],
      "name": "e21",
      "outputs": [],
      "payable": false,
      "stateMutability": "nonpayable",
      "type": "function"
    },
    {
      "constant": false,
      "inputs": [],
      "name": "e1",
      "outputs": [],
      "payable": false,
      "stateMutability": "nonpayable",
      "type": "function"
    },
    {
      "constant": false,
      "inputs": [],
      "name": "e2",
      "outputs": [],
      "payable": false,
      "stateMutability": "nonpayable",
      "type": "function"
    },
    {
      "constant": false,
      "inputs": [],
      "name": "e3",
      "outputs": [],
      "payable": false,
      "stateMutability": "nonpayable",
      "type": "function"
    },
    {
      "constant": false,
      "inputs": [],
      "name": "e4",
      "outputs": [],
      "payable": false,
      "stateMutability": "nonpayable",
      "type": "function"
    }
  ],
  "bytecode": "0x608060405234801561001057600080fd5b506105ad806100206000396000f300608060405260043610610077576000357c0100000000000000000000000000000000000000000000000000000000900463ffffffff168062def0b21461007c57806356800b521461009357806379e5f054146100aa5780639b31f9e8146100c1578063a0f29798146100d8578063a2c2d666146100ef575b600080fd5b34801561008857600080fd5b50610091610106565b005b34801561009f57600080fd5b506100a8610226565b005b3480156100b657600080fd5b506100bf610293565b005b3480156100cd57600080fd5b506100d661033f565b005b3480156100e457600080fd5b506100ed6103f3565b005b3480156100fb57600080fd5b50610104610513565b005b7f39be10caf08413c53cba369135da2b641931c99ac27b0d821e26f3ec4e0c63d2336000604051808373ffffffffffffffffffffffffffffffffffffffff1673ffffffffffffffffffffffffffffffffffffffff1681526020018281526020019250505060405180910390a17fa7070e1659496fddc8e134f7c9c487aba246b54d9a23918210a30bfa32af9e4563deadbeef6040518080602001837c0100000000000000000000000000000000000000000000000000000000027bffffffffffffffffffffffffffffffffffffffffffffffffffffffff19168152602001828103825260058152602001807f68656c6c6f0000000000000000000000000000000000000000000000000000008152506020019250505060405180910390a1565b7fe86793c401899b62baf9c8e9b8a8803ece6ace1021d056fe8634d1f59a0410c13243604051808373ffffffffffffffffffffffffffffffffffffffff1673ffffffffffffffffffffffffffffffffffffffff1681526020018281526020019250505060405180910390a1565b7fd8f3042e770b7de0dc534d3accbe98fba747e05ada6febe1a03d1e098521edc26000357fffffffff0000000000000000000000000000000000000000000000000000000016434060405180837bffffffffffffffffffffffffffffffffffffffffffffffffffffffff19167bffffffffffffffffffffffffffffffffffffffffffffffffffffffff1916815260200182600019166000191681526020019250505060405180910390a1565b7fa7070e1659496fddc8e134f7c9c487aba246b54d9a23918210a30bfa32af9e4563deadbeef6040518080602001837c0100000000000000000000000000000000000000000000000000000000027bffffffffffffffffffffffffffffffffffffffffffffffffffffffff19168152602001828103825260058152602001807f68656c6c6f0000000000000000000000000000000000000000000000000000008152506020019250505060405180910390a1565b7fa7070e1659496fddc8e134f7c9c487aba246b54d9a23918210a30bfa32af9e4563deadbeef6040518080602001837c0100000000000000000000000000000000000000000000000000000000027bffffffffffffffffffffffffffffffffffffffffffffffffffffffff19168152602001828103825260058152602001807f68656c6c6f0000000000000000000000000000000000000000000000000000008152506020019250505060405180910390a17f39be10caf08413c53cba369135da2b641931c99ac27b0d821e26f3ec4e0c63d2336000604051808373ffffffffffffffffffffffffffffffffffffffff1673ffffffffffffffffffffffffffffffffffffffff1681526020018281526020019250505060405180910390a1565b7f39be10caf08413c53cba369135da2b641931c99ac27b0d821e26f3ec4e0c63d2336000604051808373ffffffffffffffffffffffffffffffffffffffff1673ffffffffffffffffffffffffffffffffffffffff1681526020018281526020019250505060405180910390a15600a165627a7a72305820be9afa4ce385da787f13197a249b8d9d1c557381e3c46f9bbada45913eee79870029",
  "source": "pragma solidity ^0.4.22;\n\ncontract Linearization {\n\n  event E1(address sender, uint amount);\n  event E2(string tag, bytes4 uuid);\n  event E3(address txOrigin, uint blockNumber);\n  event E4(bytes4 sig, bytes32 blockHash);\n\n  function e12() public {\n    emit E1(msg.sender, 0);\n    emit E2(\"hello\", 0xdeadbeef);\n  }\n\n  function e21() public {\n    emit E2(\"hello\", 0xdeadbeef);\n    emit E1(msg.sender, 0);\n  }\n\n  function e1() public {\n    emit E1(msg.sender, 0);\n  }\n\n  function e2() public {\n    emit E2(\"hello\", 0xdeadbeef);\n  }\n\n  function e3() public {\n    emit E3(tx.origin, block.number);\n  }\n\n  function e4() public {\n    emit E4(msg.sig, blockhash(block.number));\n  }\n}",
  "sourcePath": "/home/akru/hsweb3test/contracts/Linearization.sol",
  "compiler": {
    "name": "solc",
    "version": "0.4.24+commit.e67f0147.Emscripten.clang"
  },
  "schemaVersion": "2.0.1",
  "updatedAt": "2018-10-17T08:27:57.791Z"
}