{
  "contractName": "SimpleStorage",
  "abi": [
    {
      "constant": true,
      "inputs": [],
      "name": "count",
      "outputs": [
        {
          "name": "",
          "type": "uint256"
        }
      ],
      "payable": false,
      "stateMutability": "view",
      "type": "function"
    },
    {
      "anonymous": false,
      "inputs": [
        {
          "indexed": false,
          "name": "_count",
          "type": "uint256"
        }
      ],
      "name": "_CountSet",
      "type": "event"
    },
    {
      "constant": false,
      "inputs": [
        {
          "name": "_count",
          "type": "uint256"
        }
      ],
      "name": "setCount",
      "outputs": [],
      "payable": false,
      "stateMutability": "nonpayable",
      "type": "function"
    }
  ],
  "bytecode": "0x608060405234801561001057600080fd5b50610113806100206000396000f3006080604052600436106049576000357c0100000000000000000000000000000000000000000000000000000000900463ffffffff16806306661abd14604e578063d14e62b8146076575b600080fd5b348015605957600080fd5b50606060a0565b6040518082815260200191505060405180910390f35b348015608157600080fd5b50609e6004803603810190808035906020019092919050505060a6565b005b60005481565b806000819055507f23420683cdbc4b73b0779e0325c497f5b72b3e8a92f3882a5a754c1b9eb734ec816040518082815260200191505060405180910390a1505600a165627a7a72305820a2e06ca2fff9366521c668d197df2b9e7164abd3974f3b0d54e6690ca00798400029",
  "source": "pragma solidity ^0.4.15;\n\ncontract SimpleStorage {\n    uint public count;\n    \n    event _CountSet(uint _count);\n    \n    function setCount(uint _count) external {\n        count = _count;\n        emit _CountSet(_count);\n    }\n}\n",
  "sourcePath": "/home/akru/hsweb3test/contracts/SimpleStorage.sol",
  "compiler": {
    "name": "solc",
    "version": "0.4.24+commit.e67f0147.Emscripten.clang"
  },
  "schemaVersion": "2.0.1",
  "updatedAt": "2018-10-17T08:28:45.992Z"
}